:060000000A128A1110280B
:10000800FE00030E83160313B1000A08B2007F082E
:10001800B3000A128A15E62D0A128A1113288316CC
:1000280003130A128A11FF270A128A11C400B601A3
:10003800B701B801B901BA01BB01BC01BD01BE01DC
:10004800BF01C001C101C201C30183120313EE0144
:10005800EF0183010A128A15F82C831203133D0855
:100068008039C2004208C7003D08C2004207C300E9
:100078004308CD00BC1F4128422843284D144D0891
:1000880003194728482857284D0A031D4C284D288E
:1000980055280030BD000030BC000030BB000030E7
:1000A800BA00BC175F280030BD000030BC0000302B
:1000B800BB000030BA0041088039C2004208C706B8
:1000C8004108C2004207C3004308CC00C01F6D2886
:1000D8006E286F284C144C08031973287428832839
:1000E8004C0A031D7828792881280030C100003087
:1000F800C0000030BF000030BE00C0178B280030A1
:10010800C1000030C0000030BF000030BE004C0805
:1001180003198F28902895284D08031D94289528A1
:100128009E280030BD000030BC000030BB0000300D
:10013800BA00912B3A08C2004208F00040080A129F
:100148008A159F240A128A11710883120313D30097
:100158007008D2005208C200C301C401C501450895
:10016800CB004408CA004308C9004208C800530825
:10017800C200C301C401C5014508D1004408D0002C
:100188004308CF004208CE003B08C2004208F000F6
:100198003F080A128A159F240A128A1171088312CD
:1001A8000313D3007008D2005208C200C301C4016F
:1001B800C5014208C807430803110318013E031983
:1001C800E628C907440803110318013E0319ED285E
:1001D800CA07450803110318013E0319F428CB0781
:1001E8005308C200C301C401C5014208CE07430831
:1001F80003110318013E03190229CF07440803110C
:100208000318013E03190929D007450803110318EB
:10021800013E03191029D1073C08C2004208F0002A
:100228003E080A128A159F240A128A11710883123D
:100238000313D3007008D2005208C200C301C401DE
:10024800C5014208C807430803110318013E0319F2
:100258002E29C907440803110318013E031935293B
:10026800CA07450803110318013E03193C29CB07A7
:100278005308C200C301C401C5014208CE074308A0
:1002880003110318013E03194A29CF074408031133
:100298000318013E03195129D00745080311031813
:1002A800013E03195829D1070830C2000310C80DB0
:1002B800C90DCA0DCB0DC20B5A293B08C200420812
:1002C800F0003E080A128A159F240A128A11710842
:1002D80083120313D3007008D2005208C2005308D7
:1002E800C300C401C5014208C80743080311031825
:1002F800013E03198029C907440803110318013E68
:1003080003198729CA07450803110318013E031971
:100318008E29CB073A08C2004208F0003F080A12AB
:100328008A159F240A128A11710883120313D300B5
:100338007008D2005208C2005308C300C401C501A6
:100348004208C807430803110318013E0319AD29E1
:10035800C907440803110318013E0319B429CA0741
:10036800450803110318013E0319BB29CB070830C0
:10037800C2000310C80DC90DCA0DCB0DC20BBD2993
:100388003A08C2004208F0003E080A128A159F2463
:100398000A128A11710883120313D3007008D2005D
:1003A8005208C2005308C300C401C5014208C80767
:1003B800430803110318013E0319E329C907440838
:1003C80003110318013E0319EA29CA074508031156
:1003D8000318013E0319F129CB073B08C200420864
:1003E800F00040080A128A159F240A128A1171081F
:1003F80083120313D3007008D2005208C2005308B6
:10040800C300C401C5014208CE07430803110318FD
:10041800013E0319102ACF07440803110318013EAF
:100428000319172AD007450803110318013E0319B9
:100438001E2AD1073C08C2004208F0003F080A12F1
:100448008A159F240A128A11710883120313D30094
:100458007008D2005208C2005308C300C401C50185
:100468004208CE07430803110318013E03193D2A29
:10047800CF07440803110318013E0319442AD00783
:10048800450803110318013E03194B2AD1073C08FC
:10049800C2004208F00040080A128A159F240A1276
:1004A8008A11710883120313D3007008D20052080E
:1004B800C2005308C300C401C50108300310C20DAF
:1004C800C30DC40DC50DFF3E031D622A4208CE07A9
:1004D800430803110318013E0319732ACF07440880
:1004E80003110318013E03197A2AD007450803119E
:1004F8000318013E0319812AD1074808C200490898
:10050800C3004A08C4004B08C50018300310C50CC6
:10051800C40CC30CC20CFF3E031D8A2A4208CE0736
:10052800430803110318013E03199B2ACF07440807
:1005380003110318013E0319A22AD0074508031125
:100548000318013E0319A92AD1070830C200031075
:10055800C80DC90DCA0DCB0DC20BAB2A4D084C07EF
:10056800C200C301C30D4208823ED20043080318EB
:10057800013EFF3ED300DD2A0130C2000310CE0D3C
:10058800CF0DD00DD10DC20BC22ACB1FCC2ACD2A3C
:10059800CE2A4E140130C2000310C80DC90DCA0D71
:1005A800CB0DC20BD02AFF30D2070318D30AFF3075
:1005B800D307D01FE02AE12AC02ACC01CB1FE52AA5
:1005C800E62A022BFF304805C200FF304905C30068
:1005D800FF304A05C4007F304B05C5004508440478
:1005E800430442040319F92AFA2AFD2ACC01CC0A49
:1005F800022B4E1C002B012B022BFA2A4C08031944
:10060800062B072B382B0130CE070030031801309A
:10061800CF07003003180130D0070030031801302D
:10062800D107511C182B192B382B4E08C2004F0824
:10063800C3005008C4005108C5000130C600450D6C
:10064800C50CC40CC30CC20CC60B232B4508D10027
:100658004408D0004308CF004208CE000130D2073A
:100668000318D30A0030D3075308803AFF008030BC
:100678007F02031D412BFF305202031C442B452BE4
:10068800502B7F3083120313D1008030D00000300C
:10069800CF000030CE00852B831203135308803A15
:1006A800FF0080307F02031D5B2B013052020318CC
:1006B8005E2B5F2B6B2B003083120313D1000030AD
:1006C800D0000030CF000030CE00C701852B831248
:1006D80003135208C2004208CD00FF30CE05FF3098
:1006E800CF057F30D0050030D1054D1C7C2B7D2BEC
:1006F8007E2BD0174D08C2000310420CC3004308DC
:10070800D1004708C2004208D1045108BD00500872
:10071800BC004F08BB004E08BA0008008312031340
:1007280057088039DC005C08E4005708DC005C07E7
:10073800DD005D08E600D61FA22BA32BA42B6614B0
:1007480066080319A82BA92BB92B660A031DAD2B24
:10075800AE2BB62B0030D7000030D6000030D500C5
:100768000030D400D617D701C12B0030D700003095
:10077800D6000030D5000030D4005B088039DC009A
:100788005C08E500650864060319CB2BCC2BCD2B40
:1007980064175B08DC005C07DD005D08E500DA1F14
:1007A800D62BD72BD82B651465080319DC2BDD2B2A
:1007B800ED2B650A031DE12BE22BEA2B0030DB0051
:1007C8000030DA000030D9000030D800DA17DB0139
:1007D800F52B0030DB000030DA000030D9000030A3
:1007E800D800660865020318FA2BFB2B3F2C641F00
:1007F800FE2BFF2B032C8030DC005C08E406660827
:10080800DC005C08E7006508DC005C08E6006708B7
:10081800DC005C08E5005408DC005C08E7005808C8
:10082800DC005C08D4006708DC005C08D8005508C8
:10083800DC005C08E7005908DC005C08D5006708A4
:10084800DC005C08D9005608DC005C08E7005A08A0
:10085800DC005C08D6006708DC005C08DA00570892
:10086800DC005C08E7005B08DC005C08D700670870
:10087800DC005C08DB00E7016508DC00DD015D08E1
:10088800DF0066085C02DE00031CDF035F08803AB5
:10089800FF0080307F02031D532C1A305E02031CB8
:1008A800562C572C942C83120313570856045504BE
:1008B8005404031D602C622C0130632C0030DC00D2
:1008C8005C08E7000030D7000030D6000030D500C3
:1008D8000030D4006508DC005C08E6009C2C671C2E
:1008E800762C772C802C6708DC0003105C0C013810
:1008F800DD005D08E700822C0310E70C541C852CF2
:10090800862C872CE7170130DC00570DD70CD60C46
:10091800D50CD40CDC0B892C0130DC005C08E60714
:100928008312031365086602031C9B2C9C2C732CF2
:10093800641B9F2CA02CEB2C6608031DA42CA52C53
:10094800AE2C0030D7000030D6000030D500003083
:10095800D400192E5808D407590803110318013E6A
:100968000319B72CD5075A0803110318013E0319B8
:10097800BE2CD6075B0803110318013E0319C52CCA
:10098800D707571CC82CC92C9F2D671CCC2CCD2CE5
:10099800D62C6708DC0003105C0C0138DD005D080C
:1009A800E700D82C0310E70C541CDB2CDC2CDD2CC6
:1009B800E7170130DC00570DD70CD60CD50CD40C3A
:1009C800DC0BDF2C0130DC005C08E6079F2D5708A4
:1009D800803AFF005B08803A7F02031DFD2C5A080D
:1009E8005602031DFD2C59085502031DFD2C5808FD
:1009F80054020318002D012D592DFF30DC00FF3063
:100A0800DD00FF30DE00FF30DF005808E000590845
:100A1800E1005A08E2005B08E3005408E0025508C8
:100A2800031C550F182D192DE1025608031C560FEB
:100A38001E2D1F2DE2025708031C570F242D252DAC
:100A4800E3026008DC0761080318610F2C2D2D2DC7
:100A5800DD0762080318620F322D332DDE076308A5
:100A68000318630ADF075F08D7005E08D6005D0831
:100A7800D5005C08D4008030DC005C08E406E70997
:100A8800E70A6708031D492D4A2D672D0130D40751
:100A9800003003180130D507003003180130D6079D
:100AA800003003180130D707672D5808D4025908B9
:100AB800031C590FD5025A08031C5A0FD6025B08AB
:100AC800031C5B0FD7025708560455045404031D32
:100AD8006E2D6F2D9B2D6708031D732D742D9B2D77
:100AE8000030D7000030D6000030D5000030D400E8
:100AF800192E0130DC000310D40DD50DD60DD70DFD
:100B0800DC0B7F2DE71F892D8A2D8B2D5414671C34
:100B18008E2D8F2D922D0314E70D942D0310E70DC4
:100B280066080319982D992D9B2D0130E602D61FD2
:100B38009E2D9F2D7D2DE501E71FA32DA42DB22D00
:100B480067087F390319A92DAA2DAD2DE501E50AFE
:100B5800B22D541CB02DB12DB22DAA2D6508031944
:100B6800B62DB72DEB2D0130D40700300318013016
:100B7800D507003003180130D607003003180130BC
:100B8800D707571CC82DC92DEB2D5408DC00550874
:100B9800DD005608DE005708DF000130E0005F0D79
:100BA800DF0CDE0CDD0CDC0CE00BD32D5F08D7006E
:100BB8005E08D6005D08D5005C08D400660A0319F3
:100BC800E62DE72DEB2D0130DC005C08E607660A10
:100BD8000319EF2DF02DF52D6608031DF42DF52DC5
:100BE800032E0030D7000030D6000030D50000308A
:100BF800D4006608031D012E022E032EE401661C94
:100C0800062E072E092ED6170D2E7F30DC005C0825
:100C1800D6056608DC0003105C0CDD005D08D70013
:100C2800E41F172E182E192ED71708008312031346
:100C380027088039A8002808B1002708A800280735
:100C4800A9002908B800A61F2A2E2B2E2C2E3814EE
:100C580038080319302E312E412E380A031D352E3F
:100C6800362E3E2E0030A7000030A6000030A5002A
:100C78000030A400A617A701492E0030A7000030B5
:100C8800A6000030A5000030A40023088039A80081
:100C98002808B1062308A8002807A9002908B900D0
:100CA800A21F572E582E592E3914390803195D2EB4
:100CB8005E2E6E2E390A031D622E632E6B2E0030B7
:100CC800A3000030A2000030A1000030A000A2174D
:100CD800A301762E0030A3000030A2000030A1004E
:100CE8000030A0002308220421042004031D7D2EC7
:100CF8007E2E972E0030A7000030A6000030A500F9
:100D08000030A4008030A6047F30A7043108A80072
:100D18002808A7042708A3002608A2002508A10080
:100D28002408A000F62F3808031D9B2E9C2EA52E04
:100D38000030A3000030A2000030A1000030A00065
:100D4800F62F3808A800A9012908AB00390828029D
:100D5800AA00031CAB032A087F3EB2002B08031825
:100D6800013E003EB3002708B0002608AF00250862
:100D7800AE002408AD000030A7000030A600003007
:100D8800A5000030A4000030B7000030B6000030E5
:100D9800B5000030B400B9011B2F39080319D52E4E
:100DA800D62EF62E0130A8000310AD0DAE0DAF0DF6
:100DB800B00DA80BD82E0130A8000310A40DA50D66
:100DC800A60DA70DA80BE12EB71FEB2EEC2EED2ECE
:100DD80024140130A8000310B40DB50DB60DB70DDD
:100DE800A80BEF2E23083002031D042F22082F0220
:100DF800031D042F21082E02031D042F20082D0295
:100E0800031C072F082F172F37172008AD022108BA
:100E1800031C210FAE022208031C220FAF02230875
:100E2800031C230FB0020130A8002808B9071A30A4
:100E38003902031C202F212FD12E30082F042E0415
:100E48002D040319282F292F482F3414482F013037
:100E5800A8000310A40DA50DA60DA70DA80B2D2FF6
:100E6800B71F372F382F392F24140130A80003104B
:100E7800B40DB50DB60DB70DA80B3B2FFF30B2075B
:100E88000318B30AFF30B307A61F4B2F4C2F2B2F85
:100E9800B901B71F502F512F6D2FFF303405A8000F
:100EA800FF303505A900FF303605AA007F30370529
:100EB800AB002B082A04290428040319642F652F82
:100EC800682FB901B90A6D2F241C6B2F6C2F6D2F59
:100ED800652F39080319712F722FA32F0130A4072A
:100EE800003003180130A507003003180130A607A9
:100EF800003003180130A707271C832F842FA32F46
:100F08002408A8002508A9002608AA002708AB007D
:100F18000130AC002B0DAB0CAA0CA90CA80CAC0B27
:100F28008E2F2B08A7002A08A6002908A500280844
:100F3800A4000130B2070318B30A0030B30733081E
:100F4800803AFF0080307F02031DAC2FFF30320251
:100F5800031CAF2FB02FBE2FFF3083120313B20034
:100F68000030B3000030A7000030A6000030A50014
:100F78000030A400831203133308803AFF00803046
:100F88007F02031DC92F013032020318CC2FCD2F49
:100F9800DA2F83120313B201B3010030A700003027
:100FA800A6000030A5000030A400B101831203138D
:100FB8003208A8002808B800381CE32FE42FE62FD1
:100FC800A617EA2F7F30A8002808A6053808A80029
:100FD8000310280CA9002908A7003108A800280830
:100FE800A7048E2E0800831603130F088F39303894
:080FF8008F000F140800833480
:1018CE0083160317890183160313880183120313EA
:1018DE0088018B170B17831603130C178B168312A5
:1018EE0003130C130B110B118B168B170800831699
:1018FE000313071587149B3092000C3083120313C9
:10190E0097000C309D00303097040B3095009D16DB
:10191E001D160B309B008C100330920412158C1C7C
:10192E00992C9A2C962C83160313071187100800F6
:10193E00F800F401F5017008F200F3017208F600E8
:10194E007308F700781CAC2CAD2CB32C7608F4077A
:10195E000318F50A7708F50701300310F60DF70D99
:10196E00FF3E031DB42C0310F80C7808031DC02C89
:10197E00C12CA92C7508F1007408F000080083161C
:10198E00031305081138850083160317080811384C
:10199E008800831203139F131F17831603139F12BE
:1019AE001F129F13C330831203139F051F08C339E1
:1019BE0004389F001F08C33908389F001F140330D6
:1019CE0083160313B400B40BEA2C8316031381128F
:1019DE0001128111F830810544088312031381002E
:1019EE0008000A128A1567240A128A150A128A1525
:1019FE00C6240A128A150A128A11F7270A128A15A4
:101A0E000A128A157E240A128A15831203139F184E
:101A1E00112D122D0C2D1F0C83160313B500350C32
:101A2E000F39003A031D1C2D1D2D242D8312031377
:101A3E001F08C33904389F00432D831203131F0C54
:101A4E0083160313B500350C0F39013A031D302DE3
:101A5E00312D382D831203131F08C33908389F0008
:101A6E00432DC330831203139F05283083160313AF
:101A7E00B500B50B402D432D831203139F140C2D6F
:101A8E000A128A1110280310831203136A0D6B0DAC
:101A9E0083160313A000200883120313ED006D08B4
:101AAE00031D5A2D5B2D642D0030EB000030EA0033
:101ABE000030E9000030E800E52D680883160313B6
:101ACE00A00083120313690883160313A100831267
:101ADE0003136A0883160313A200831203136B0801
:101AEE0083160313A3001F300310A30CA20CA10C2A
:101AFE00A00CFF3E031D7B2D2008A400240883129A
:101B0E000313EC00EA17FF30E805FF30E905FF305C
:101B1E00EA050030EB059630ED02ED1F972D982D5E
:101B2E00B62D6D08803A973E03189E2D9F2DA02D41
:101B3E005B2D01300310EB0CEA0CE90CE80CFF3EB8
:101B4E00031DA12D013083160313A000200883125C
:101B5E000313ED07031DB42DB52DA02DD52D20306B
:101B6E006D02031CBB2DBC2DD02D5B2D01308316B9
:101B7E000313A000031083120313E80DE90DEA0D01
:101B8E00EB0D83160313A00BC12D0130831203132B
:101B9E00ED026D08031DD42DD52DBD2D6C08031936
:101BAE00D92DDA2DE52DE809E909EA09EB09E80A4C
:101BBE000319E90A0319EA0A0319EB0A080083124A
:101BCE0003130C1FEB2DEC2D662E1F0C8316031327
:101BDE00AF002F0C0F39003A031DF62DF72D232ED3
:101BEE00831203131E0883160313AF00B0012F08D0
:101BFE00A5003008A6000030A700A800FF30A900FD
:101C0E000030AA000730AB000030AC000F30AD0042
:101C1E000030AE000A128A158F260A128A15831614
:101C2E0003132608C1002508C000400883120313C1
:101C3E00950030309704642E831203131F0C831605
:101C4E000313AF002F0C0F39013A031D2F2E302E28
:101C5E005C2E831203131E0883160313AF00B0010C
:101C6E002F08A5003008A6000030A700A800FF30FE
:101C7E00A9000030AA000730AB000030AC000F30D6
:101C8E00AD000030AE000A128A158F260A128A1590
:101C9E00831603132608BF002508BE003E088312D4
:101CAE0003139B009D161D16642E831203131E082C
:101CBE0083160313AF002F08C30083120C130B1DE2
:101CCE00692E6A2E842E013083160313AF002F085F
:101CDE00C207430842020318752E762E7A2E8312FF
:101CEE00031308147D2E8312031308108316031397
:101CFE0044088312031381000B1183160313330858
:101D0E00FF0032088A00310E8300FE0E7E0E09009F
:101D1E00831603132B08F0002C08F1000030F11B82
:101D2E00FF30F200F30001300A128A1546270A121C
:101D3E008A15730883120313DB007208DA00710828
:101D4E00D9007008D800831603132B082D02F0005B
:101D5E002C08031C2C0A2E02F100F201F11BF203D7
:101D6E007208F30001300A128A1546270A128A15E4
:101D7E00730883120313A7007208A6007108A5004A
:101D8E007008A4008316031327082902F000280800
:101D9E00031C280A2A02F100F201F11BF203720859
:101DAE00F30001300A128A1546270A128A157308A3
:101DBE0083120313A3007208A2007108A100700819
:101DCE00A0000A128A111A260A128A158312031308
:101DDE002308C1002208C0002108BF002008BE0051
:101DEE008316031327082502F0002808031C280A6F
:101DFE002602F100F201F11BF2037208F30001302A
:101E0E000A128A1546270A128A15730883120313BB
:101E1E00BD007208BC007108BB007008BA000A123F
:101E2E008A1131200A128A15831203133D08D70036
:101E3E003C08D6003B08D5003A08D4000A128A1195
:101E4E0092230A128A15831203135708EB005608C1
:101E5E00EA005508E9005408E8000A128A154A25D6
:101E6E000A128A1583120313690883160313A60038
:101E7E0083120313680883160313A5000800F800E5
:101E8E00780803194B2F4C2F602FF31F4F2F502F15
:101E9E00602F7009FA007109FB007209FC007309CA
:101EAE00FD00FA0A0319FB0A0319FC0A0319FD0ABD
:101EBE00682F7308FD007208FC007108FB007008A3
:101ECE00FA007308720471047004031D6F2F702FD3
:101EDE00792F0030F3000030F2000030F1000030B6
:101EEE00F000FF2F9630F4007408F9008B2F0130AC
:101EFE00F4007408F90701300310FD0CFC0CFB0C08
:101F0E00FA0CFF3E031D832FFE307D05031D902F1F
:101F1E00912F7E2FAD2F0130F4007408F907013098
:101F2E00FA07003003180130FB07003003180130A8
:101F3E00FC07003003180130FD0701300310FD0CC3
:101F4E00FC0CFB0CFA0CFF3E031DA52FFF307D058C
:101F5E00031DB22FB32F922FBF2F0130F902013084
:101F6E00F4000310FA0DFB0DFC0DFD0DF40BB82F54
:101F7E00FC1BC22FC32FC92F023079020318C82FA2
:101F8E00C92FB42F7918CC2FCD2FD52FFF30FA05AE
:101F9E00FF30FB057F30FC05FF30FD050310F90C0B
:101FAE007908F400F501F601F70118300310F40D6D
:101FBE00F50DF60DF70DFF3E031DDD2F7408FA0427
:101FCE007508FB047608FC047708FD0478080319ED
:101FDE00F12FF22FF72FF31FF52FF62FF72FFD17F7
:101FEE007D08F3007C08F2007B08F1007A08F0000F
:021FFE000800D9
:08400000FF3FFF3FFF3FFF3FC0
:04400E00D420FF3F7C
:00000001FF
